:1000000080319428323432347E1480312000911EA5
:100010000A280B28232823001908F00020006B0869
:1000200086008701700881000130F0007008EB073E
:100030006B08453A031D1D281E2822283230F00087
:100040007008EB009112911C262827285728911040
:100050002B08F1002A08F000F136F00CF136F00C14
:1000600070082C00950020002A080339F0000530A4
:10007000F035FF3E031D382870352C009400200019
:100080002908F1002808F000F136F00CF136F00CE8
:1000900070082C009800200028080339F000053073
:1000A000F035FF3E031D502870352C0097002000CE
:1000B000141D5B285C28702814112209F000230904
:1000C000F100F00A0319F10A70089C0071089D0004
:1000D00022000F196C286D286F280F1570280F113A
:1000E0002000161C74287528812816103B001D104E
:1000F000200027083B009400200026083B009300C6
:100100009F172000961C85288628922896103B0071
:100110002D10200025083B00A400200024083B00EF
:10012000A300AF177E10090080319628803102208D
:100130008031EB00803103208031EC00FA01FB01BB
:1001400020308400003085003A308C31CC2480315E
:10015000A03084000030850046308C31CC248031C2
:100160007E1020008531822D8D3163258031253030
:100170002000E2000030E3008E31EE26803128308E
:100180002000E2000030E3008E31EE2680318D3118
:10019000A52580318E310E2680318D314D2580315F
:1001A0006130F2000030F3008C31D22480318D3187
:1001B000792580316130F2000030F3008C31D22497
:1001C00080318D316325803102302000E200003023
:1001D000E3001430E4000030E5008631F126803180
:1001E0001F302000E2000030E3008E31EE26803127
:1001F0002C302000E2000030E3008E31EE2680310A
:100200002F30F2009730F3008D31BB258031043060
:100210002000E2000030E3001430E4000030E5008C
:100220008631F12680318D318F25803125302000B7
:10023000E2000030E3008E31EE26803128302000CD
:10024000E2000030E3008E31EE2680312F30F200E4
:100250009730F3008D31BB25803101302000E20062
:100260000030E3008E319626803121302000E200FC
:100270000030E3008E31EE26803129302000E2008C
:100280000030E3008E31EE2680312F30F2009730BF
:10029000F3008D31BB2580310A302000E2000030B0
:1002A000E3001430E4000030E5008631F1268031AF
:1002B0008D31372580312F30F2009730F3008D31AA
:1002C000BB2580310B302000E2000030E300143009
:1002D000E4000030E5008631F12680318D312125A2
:1002E00080312F30F2009730F3008D31BB25803103
:1002F00004302000E2000030E3002830E400003049
:10030000E5008631F126803123302000E200003004
:10031000E3008E31EE2680312B302000E2000030E9
:10032000E3008E31EE2680312F30F2009730F3005B
:100330008D31BB2580310A302000E2000030E3001F
:100340002830E4000030E5008631F126803121308C
:100350002000E2000030E3008E31EE2680312E30A6
:100360002000E2000030E3008E31EE2680312F3095
:10037000F2009730F3008D31BB2580310B30200027
:10038000E2000030E3002830E4000030E500863170
:10039000F12680312F30F2009730F3008D31BB25EC
:1003A000803125302000E2000030E3008E31EE265F
:1003B000803128302000E2000030E3008E31EE264C
:1003C00080318D31792580310E302000E2000030FF
:1003D000E3001430E4000030E5008631F12680317E
:1003E0006C30F2000030F3008C31D22480312000D8
:1003F000E801E9017130F2000030F3008C31D224C1
:10040000803101302000E8070030E93D003069020A
:10041000153003196802031C0E2A0F2AFA296B30C3
:10042000F2000030F3008C31D22480312000E8014A
:10043000E9010130E2000030E3008E31C226803154
:1004400001302000E2000030E3008E31962680313A
:100450007830F2000030F3008C31D224803101304A
:100460002000E8070030E93D003069020930031937
:100470006802031C3C2A3D2A192A1830E200003089
:10048000E3001430E4000030E5008631F1268031CD
:100490006D30F2000030F3008C31D2248031200026
:1004A000E801E9017130F2000030F3008C31D22410
:1004B000803101302000E8070030E93D003069025A
:1004C000153003196802031C662A672A522A6A300B
:1004D000F2000030F3008C31D22480310E30200045
:1004E000E2000030E3001430E4000030E500863123
:1004F000F12680312000E801E9010130E2000030FE
:10050000E3008E31962680317830F2000030F3001F
:100510008C31D224803101302000E2000030E30031
:100520008E31C226803101302000E8070030E93DDD
:1005300000306902093003196802031CA02AA12AAD
:100540007D2A8D316325803113302000E200003098
:10055000E3001D30E4000030E5008631F1268031F3
:1005600021302000E2000030E3008E31EE268031A1
:100570002C302000E2000030E3008E31EE26803186
:1005800005302000E2000030E3008E31EE2680319D
:100590002F30F2009730F3008D31BB2580310030D1
:1005A0002000E200E3008E31EE2680318D3163259C
:1005B000803113302000E2000030E3003230E400EC
:1005C0000030E5008631F126803125302000E20040
:1005D0000030E3008E31EE26803128302000E2002A
:1005E0000030E3008E31EE268031D930F2009530B4
:1005F000F3008D31BB25803101302000E200003056
:10060000E3000130E4000030E5008631F12680315E
:1006100025302000E2000030E3008E31EE268031EC
:1006200028302000E2000030E3008E31EE268031D9
:1006300005302000E2000030E3008E31EE268031EC
:100640001E302000E2000030E3000F30E4000030F4
:10065000E5008631F12680318D3137258031DE305D
:10066000F2009330F3008D31BB2580311F30200024
:10067000E2000030E3000F30E4000030E500863196
:10068000F12680318D3121258031DE30F20093302A
:10069000F3008D31BB25803102302000DA000030BC
:1006A000DB00C830E7006708DC0084317C2480313F
:1006B00000302000E200E3008E31EE2680318E31E2
:1006C0000E2680318D314D25803108002000E0015B
:1006D000E1015C0886008701810127305B02103050
:1006E00003195A020318752B762B7D2B05305D06F6
:1006F0005E04031D7C2B7D2BA92B1030F2002730CC
:10070000F3005B08F5005A08F4008F318427833129
:100710007208303E2000DF005C08860087015F0819
:1007200081001030F2002730F3005B08F5005A0812
:10073000F4008F311A27833173082000DB00720820
:10074000DA000130E0000030E1000130DF005F0836
:10075000DC07600361040319AE2BAF2BBF2B033002
:100760005B02E83003195A020318B72BB82BBF2BD2
:1007700004305D065E04031DBE2BBF2BEB2BE8305F
:10078000F2000330F3005B08F5005A08F4008F31E3
:10079000842783317208303E2000DF005C08860029
:1007A00087015F088100E830F2000330F3005B0846
:1007B000F5005A08F4008F311A278331730820009E
:1007C000DB007208DA000130E0000030E1000130A7
:1007D000DF005F08DC07600361040319F02BF12BD5
:1007E000012C00305B02643003195A020318F92B04
:1007F000FA2B012C03305D065E04031D002C012C36
:100800002D2C6430F2000030F3005B08F5005A082C
:10081000F4008F31842783317208303E2000DF00DE
:100820005C08860087015F0881006430F2000030B8
:10083000F3005B08F5005A08F4008F311A27833162
:1008400073082000DB007208DA000130E00000309D
:10085000E1000130DF005F08DC0760036104031979
:10086000322C332C432C00305B020A3003195A021D
:1008700003183B2C3C2C432C02305D065E04031D08
:10088000422C432C6B2C0A30F2000030F3005B0842
:10089000F5005A08F4008F31842783317208303E06
:1008A0002000DF005C08860087015F0881000A30B5
:1008B000F2000030F3005B08F5005A08F4008F31B5
:1008C0001A27833173082000DB007208DA00013038
:1008D000DF005F08DC075A08303EDF005C08860056
:1008E00087015F0881000130DF005F08DC075C08DA
:1008F00086008701810108002000DF01E001DD01A1
:10090000DE015C08860087018101E32C8E316E26B2
:10091000843173082000E2007208E100610A031DBF
:10092000962C620A0319952C962CE32C0D30610647
:10093000031D9B2C9C2C9D2CE92C00306202303036
:1009400003196102031CA52CA62CE32C00306202C3
:100950003A30031961020318AE2CAF2CE32CDD01F1
:10096000DE015B086002031DB72C5A085F02031802
:10097000BA2CBB2CD72C6208F3006108F2008C3132
:10098000D224843120006108F8005C0886008701C9
:10099000780881000130F8007808DC075C088600E0
:1009A000870181010130DF070030E03DE32C583042
:1009B000F2000030F3008C31D2248431FE3020006C
:1009C000DD00FF30DE007A087B040319E82CE92CF7
:1009D000862C5F086004031DEE2CEF2CF32CFF30F7
:1009E000DD00FF30DE007A037B04031DF82CF92CB8
:1009F000FD2CFD30DD00FF30DE005E08DB005D0811
:100A0000DA00080017303C00BD001430BB00243071
:100A10003D00A6002330A2002130A300193092002F
:100A20001A3093001D3094001E30950023000D10E5
:100A30000D118D110D128D128E120F128F122100B9
:100A40000D140D158D150D168D168E160F168F168D
:100A500024000D140D158D150D168D168E160F16FE
:100A60008F1627000D140D158D150D168D168E166B
:100A70000F168F162000101090101011210010106A
:100A80009010101123000C1424000C1023000F17D9
:100A900024000F1323008F1724008F1323008C14BE
:100AA0008D1421008C108D100C118C110C128C12D5
:100AB00022008F1521008F1122000F1121000F112C
:100AC00022008F1021008F1027000E148E1420009A
:100AD0008E1121008E1120000E1121000E11230015
:100AE0000E1224000E1227000E1621000E162200F0
:100AF0000F1021000F1023008E1327008E172100E6
:100B00009713080021001C1F862D872D822D85310B
:100B1000022585318C31F52485318C31DA248531FB
:100B20008E314A26853187318127853186314B26A2
:100B300085318D310B2585318C31E7248531853127
:100B4000EB2585310B178B178D31F1258531013060
:100B50002000DA000030DB00C830EA006A08DC0060
:100B600084317C24853120005B082100E9002000CD
:100B70005A082100E800680869040319C02DC12D36
:100B8000C92D6908F6006808F5008F31C027853146
:100B9000A42DC8308F314E27853179082100E70018
:100BA0007808E600DF2D8031B4208531A42D1C307B
:100BB000F2009630F3008D31BB258531A42D6708F6
:100BC000003A0319E42DD72D6608013A0319D32DF5
:100BD000D72D803194282000DF01E0011030F20091
:100BE0002730F3008D31D525853122008F1110304B
:100BF000F2002730F3008D31D52585310030F20029
:100C0000F3001030F4000F30F5008631A72685314F
:100C10000130F2000030F3001E30F4000130F50026
:100C20008631A72685310230F2000030F30005300E
:100C3000F4000030F5008631A72685310330F2003C
:100C40000030F3002030F4000030F5008631A72694
:100C500085310430F2000030F3001030F40005302C
:100C6000F5008631A72685310530F2000030F3000B
:100C70001030F4000430F5008631A72685310630A7
:100C8000F2000030F3000930F4000030F500863146
:100C9000A7268531080021000C163B009B019F30E0
:100CA000A005FC309E051E088F3950389E00970124
:100CB0009801910192014E3096001F3095009901E4
:100CC0009A01DC302000A6000530A70027083B0071
:100CD0009400200026083B0093001D101C142000E7
:100CE0001610210016143B009F171B129B172100A2
:100CF0000C128C163B00AB019F30B005FC30AE05EA
:100D00002E088F395038AE00A701A801A101A20119
:100D10004E30A6001F30A500A901AA01DC3020003A
:100D2000A4000530A50025083B00A40020002408ED
:100D30003B00A3002D102C142000961021009614C7
:100D40003B00AF172B12AB1721008C120800730861
:100D5000F7007208F600760EF039F700F601760813
:100D6000F2007708F30072087404F4007308750445
:100D7000F5007508F60076082000DA007408F60021
:100D80007608DB0022000F142400151320005A08F7
:100D900024009100141CCD2ECE2ECA2E1108F60070
:100DA00076082000DE005E08F600F7017608F700FE
:100DB000F6017608DC007708DD005B08240091006E
:100DC000141CE32EE42EE02E1108F6007608200015
:100DD000DE005C085E04DC005D08DD0022000F1010
:100DE00008001B30F2000030F3008C31D224863131
:100DF0005B30F2000030F3008C31D22486312000C9
:100E00006308DB006208DA004630E6006608DC00B2
:100E10000030DD00DE008331662386314630F2008B
:100E20000030F3008D31BB2586313B30F2000030BD
:100E3000F3008C31D224863120006508DB00640881
:100E4000DA004630E6006608DC000030DD00DE0037
:100E50008331662386314630F2000030F3008D3155
:100E6000BB2586314830F2000030F3008C31D224AB
:100E7000863108000D340A34203445346E3474341D
:100E800065347234203461342034733474346534FE
:100E90007034203469346E3474346534723476348A
:100EA00061346C34203469346E3420346D346934E8
:100EB000633472346F347334653463346F346E3436
:100EC000643473342E342034563461346C347534C5
:100ED0006534203462346534743477346534653471
:100EE0006E342034373430343034203461346E344E
:100EF0006434203439343934393439343A34203490
:100F0000003421000C152C00960164302000AA004A
:100F10000030AB002B08F3002A08F200F336F20C85
:100F2000F336F20C72082C00950020002A080339D1
:100F3000F2000530F235FF3E031D9A2F72352C006A
:100F4000940021000C118C152C00990164302000B4
:100F5000A8000030A9002908F3002808F200F336A1
:100F6000F20CF336F20C72082C00980020002808CE
:100F70000339F2000530F235FF3E031DBB2F7235F9
:100F80002C00970021008C1108000D340A340D3418
:100F90000A3420342A342A342A342A3420344C3473
:100FA00045344434203437342034533445344734C2
:100FB0004D3445344E34543420344434493453345D
:100FC00050344C344134593420344D344F3444344B
:100FD00055344C344534203454344534533454342B
:100FE00020344F345034543449344F344E34203448
:100FF0004C3449345334543420342A342A342A3477
:101000002A340D340A340D340A3400340D340A34D1
:10101000203445346E347434653472342034613491
:101020002034703465347234633465346E3474340F
:101030006134673465342034763461346C3475340B
:1010400065342034623465347434773465346534FF
:101050006E3420343134203461346E3464342034BE
:10106000393439342E34203445346E347434653494
:10107000723420343034203474346F342034653486
:0C1080007834693474343A34203400347D
:10199800640080010131890BCD2C003423009E1C8A
:1019A800D62CD72CD22C72089A000800290091173F
:1019B80011088F39603891001111FC309105C03041
:1019C800920510140800240095123F309200150863
:1019D800F0390A389500171615129417141795162A
:1019E800080023009F111E119C0133309B001E121A
:1019F8009E161D169D17210091163230F2007208AE
:101A08002000EC003230F2007208EB0008003030A1
:101A180020009A043F309A0530309E043F309E05DE
:101A280029001708F0390138970070309504F9300B
:101A38009400E0309605961608001B30F20000303E
:101A4800F3008C31D2248D312330F2000030F300C2
:101A58008C31D2248D313430F2000030F3008C31D7
:101A6800D2248D3108001B30F2000030F3008C3195
:101A7800D2248D312330F2000030F3008C31D2248F
:101A88008D313330F2000030F3008C31D2248D31A7
:101A980008001B30F2000030F3008C31D2248D3165
:101AA8005B30F2000030F3008C31D2248D314830A5
:101AB800F2000030F3008C31D2248D3108001B3045
:101AC800F2000030F3008C31D2248D312830F2003E
:101AD8000030F3008C31D2248D314230F2000030D6
:101AE800F3008C31D2248D3108001B30F200003015
:101AF800F3008C31D2248D312830F2000030F3000D
:101B08008C31D2248D313030F2000030F3008C312A
:101B1800D2248D3108001B30F2000030F3008C31E4
:101B2800D2248D312330F2000030F3008C31D224DE
:101B38008D313630F2000030F3008C31D2248D31F3
:101B480008001B30F2000030F3008C31D2248D31B4
:101B58002330F2000030F3008C31D2248D3135303F
:101B6800F2000030F3008C31D2248D310800CB2DE7
:101B780023009E1CC02DC12DCB2D72088400730834
:101B8800850000089A000130F2070030F33D720822
:101B98008400730885001200031DD32DD42DBC2D9D
:101BA8000800720873040319DA2DDB2DF02D2000CC
:101BB8001A107209F4007309F500F40A0319F50AFA
:101BC800740898007508990011101A14111CED2D4D
:101BD800EE2DEA2D1A10111008009B30F2009430F7
:101BE800F3008D31BB258D313C30F2009730F30086
:101BF8008D31BB258D31F830F2009630F3008D31F0
:101C0800BB258D31AA30F2009530F3008D31BB250C
:101C18008D3108001B30F2000030F3008C31D224E3
:101C28008E315B30F2000030F3008C31D2248E31DB
:101C38003230F2000030F3008C31D2248E314A3039
:101C4800F2000030F3008C31D2248E310800F60106
:101C5800F701721C302E312E352E7408F6077508E0
:101C6800F73D0130F435F50D890B362E0130F3368A
:101C7800F20C890B3B2E72087304031D442E452E6B
:101C88002D2E7708F3007608F20008002B000E13BB
:101C9800F3308E05FC308E058F0190010D14023053
:101CA8002A0090001116FC30910591172B008E1711
:101CB8001113F3309105FC309105920193018D14B5
:101CC80003302A0094001516FC30950595172B0053
:101CD80091170800FF30F600FF30F70020006C086D
:101CE8006B060319782E792E912E6C0886008701D1
:101CF8000108F400F5017408F6007508F7000130D2
:101D0800F4007408EC076C08453A031D8C2E8D2EE0
:101D1800912E3230F4007408EC007708F30076084E
:101D2800F20008001B30F2000030F3008C31D2249E
:101D38008E315B30F2000030F3008C31D2248E31CA
:101D480020006308DB006208DA004630E40064081B
:101D5800DC000030DD00DE00833166238E31463042
:101D6800F2000030F3008D31BB258E314230F20095
:101D78000030F3008C31D2248E3108001B30F20081
:101D88000030F3008C31D2248E315B30F200003009
:101D9800F3008C31D2248E3120006308DB00620806
:101DA800DA004630E4006408DC000030DD00DE00C4
:101DB800833166238E314630F2000030F3008D31D6
:101DC800BB258E314430F2000030F3008C31D22430
:101DD8008E3108001B30F2000030F3008C31D22421
:101DE8008E315B30F2000030F3008C31D2248E311A
:101DF80020006308DB006208DA004630E40064086B
:101E0800DC000030DD00DE00833166238E31463091
:101E1800F2000030F3008D31BB258E316D30F200B9
:101E28000030F3008C31D2248E310800720873041C
:101E380003191F2F202F492FF701F70A2C2F0130E4
:101E4800F235F30D890B242F0130F6007608F707D9
:101E5800F31F2F2F302F232F73087502031D362FE2
:101E680072087402031C392F3A2F3E2F7208F402AD
:101E78007308F53B0130F336F20C890B3F2F013024
:101E8800F702031D482F492F302F7508F3007408F7
:101E9800F20008002000E000DE01DF01772F600873
:101EA800860087010108D03EDA00FF3003180030B1
:101EB800DB005A08DC005B08DD005F08F3005E0801
:101EC800F2000A30F4000030F5008E312B268F31F5
:101ED80020005C087207DE005D08733DDF000130FA
:101EE800DA005A08E0076008860087010108031D28
:101EF8007E2F7F2F532F5F08F9005E08F800080037
:101F0800F801F9017208730403198B2F8C2FBB2F6A
:101F1800F701F70A982F0130F235F30D890B902F4E
:101F28000130F6007608F707F31F9B2F9C2F8F2FA1
:101F38000130F835F90D890B9D2F73087502031DC3
:101F4800A72F72087402031CAA2FAB2FB02F720898
:101F5800F4027308F53B78140130F336F20C890B60
:101F6800B12F0130F702031DBA2FBB2F9C2F790820
:101F7800F3007808F2000800E92F3F30F2009530AE
:101F8800F3008D31BB258F31FF2FAC30F200963036
:101F9800F3008D31BB258F31FF2F5D30F200953076
:101FA800F3008D31BB258F31FF2FD330F2009630EF
:101FB800F3008D31BB258F31FF2FC030F2009630F2
:101FC800F3008D31BB258F31FF2F7608FF3A0319B7
:101FD800EE2FFF2F7508FA3A0319E12F013A03197A
:101FE800D92F073A0319D12F023A0319C12F013A01
:101FF8000319C92FFF2F08000D340A342034453443
:102008006E3474346534723420347534703420344A
:1020180074346F3420346134203474346834723446
:10202800653465342034643469346734693474340D
:1020380020346E3475346D346534723469346334E5
:1020480061346C34203473347434723469346E34CB
:102058006734203428343034203474346F342034D6
:1020680039343934393429343A34203400340D348D
:102078000A34203445346E34743465347234203470
:1020880075347034203474346F342034613420341F
:1020980066346F3475347234203464346934673488
:1020A8006934743420346E3475346D346534723464
:1020B8006934633461346C34203473347434723466
:1020C80069346E346734203428343034203474341E
:1020D8006F342034393439343934393429343A3482
:1020E80020340034313430343A34203453346534B5
:1020F80074342034443443344134203476346134E5
:102108006C3475346534203428347334653465345C
:1021180020346D3461346E34753461346C34203459
:1021280066346F347234203464346534633469340B
:102138006D3461346C34203463346F346E347434E9
:1021480072346F346C342034763461346C347534C2
:10215800653429340D340A340034203432343A34A6
:1021680020344C346F346134643420346E34753424
:102178006D34653472346934633461346C342034BA
:1021880073347434723469346E346734203466348A
:1021980072346F346D3420344434693467346934AC
:1021A800743420343134203428344C346534663463
:1021B800743420346A34753473347434693466344E
:1021C80069346534643429340D340A3400340D34E8
:1021D8000A34203445346E3474346534723420340F
:1021E80061342034763461346C3475346534203489
:1021F8006234653474347734653465346E3420342D
:102208003134303430343034203461346E34643412
:10221800203432343034303430342E3420344534A1
:102228006E34743465347234203430342034743469
:102238006F34203465347834693474343A34203453
:1022480000340D340A34203445346E347434653423
:102258007234203475347034203474346F3420343C
:1022680061342034743477346F34203464346934FE
:1022780067346934743420346E3475346D3465349D
:1022880072346934633461346C3420347334743494
:10229800723469346E34673420342834303420344E
:1022A80074346F3420343934393429343A3420348E
:1022B8000034203436343A34203443346F346E34A6
:1022C800743472346F346C3420344C3445344434B0
:1022D80020347334653467346D3465346E34743443
:1022E800733420346F346E342034443469346734A2
:1022F8006934743420343134203428344C3465340F
:102308006634743420346A347534733474346934FC
:10231800663469346534643429340D340A3400343D
:102328000D340A34203445346E34743465347234D0
:10233800203461342034733469346E3467346C3437
:10234800653420346434693467346934743420342F
:102358006E3475346D346534723469346334613481
:102368006C34203473347434723469346E346734A2
:10237800203428343034203474346F3420343934E1
:1023880029343A34203400340D340A340D340A34F4
:1023980020342A342A342A342A34203453347434E6
:1023A800653470347034653472342034443469349C
:1023B800723465346334743469346F346E34203461
:1023C800433461346C346934623472346134743443
:1023D80069346F346E3420344D3465346E3475345A
:1023E80020342A342A342A342A340D340A34003466
:1023F8000D340A34203453347734693474346334F4
:10240800683420345434653473347434203452348A
:1024180075346E346E3469346E3467342E34203437
:1024280050347234653473347334203461346E3408
:10243800793420346B3465347934203474346F340F
:10244800203465347834693474343A3420340034B0
:102458000D340A3420344D346F3474346F3472348C
:102468002034723475346E346E3469346E346734A3
:102478002E34203445346E34743465347234203448
:1024880061346E347934203463346834613472349E
:1024980061346334743465347234203474346F3482
:1024A8002034733474346F3470343A342034003444
:1024B8000D340A340D340A3420342A342A342A34A8
:1024C8002A34203453345434453450345034453449
:1024D800523420344D344F3454344F345234203431
:1024E800543445345334543420344F3450344934FC
:1024F8004F344E3420344C3449345334543420341B
:102508002A342A342A342A340D340A3400340D3457
:102518000A34203445346E347434653472342034CB
:1025280044346934733470346C346134793420340D
:1025380049346E34743465346E34733469347434A5
:1025480079342034563461346C347534653420342D
:1025580028343034203474346F34203431343034F7
:10256800303429343A34203400340D340A343134C8
:1025780020343D3420344F344E342C34203430341D
:1025880020343D3420344F34463446342C342034FF
:1025980058342F34783420343D342034453458347A
:1025A800493454342E34203445346E34743465340C
:1025B80072342034763461346C34753465343A348A
:1025C800203400340D340A34203445346E347434E5
:1025D80065347234203464346534633469346D345A
:1025E80061346C34203463346F346E347434723430
:1025F8006F346C342034763461346C34753465341B
:10260800203428343034203474346F342034313456
:102618003234373429343A342034003420343534D1
:102628003A3420344C346F346134643420346E349A
:1026380075346D34653472346934633461346C34A0
:10264800203473347434723469346E34673420340B
:10265800663472346F346D342034443469346734EA
:1026680069347434203434340D340A34003420345A
:1026780034343A3420344C346F3461346434203484
:102688006E3475346D34653472346934633461344E
:102698006C34203473347434723469346E3467346F
:1026A8002034663472346F346D34203444346934E1
:1026B800673469347434203433340D340A340034C4
:1026C800203433343A3420344C346F346134643435
:1026D80020346E3475346D3465347234693463343F
:1026E80061346C34203473347434723469346E3425
:1026F80067342034663472346F346D342034443493
:102708006934673469347434203432340D340A340B
:1027180000340D340A340D340A342A342A342A3465
:1027280020345334543445345034503445345234BE
:1027380020344D344F3454344F34523420344434DC
:1027480052344934563445342034533454344134A3
:1027580054345534533420342A342A342A340D342A
:102768000A34003432343A34203452346F347434F6
:1027780061347434653420345334743465347034BB
:1027880070346534723420344D346F3474346F349B
:102798007234203441346E347434693463346C34A4
:1027A8006F3463346B3477346934733465340D347F
:1027B8000A3400345034723465347334733420343A
:1027C80061346E34793420346B3465347934203490
:1027D80074346F342034723465347434753472341C
:1027E8006E34203474346F3420346D346134693479
:1027F8006E342034733463347234653465346E3423
:102808000034203439343A34203443346F346E344D
:10281800743472346F346C3420344C34453444345A
:1028280020347334653467346D3465346E347434ED
:10283800733420346F346E3420344434693467344C
:1028480069347434203434340D340A340034203478
:1028580038343A34203443346F346E347434723438
:102868006F346C3420344C3445344434203473345D
:10287800653467346D3465346E347434733420349D
:102888006F346E34203444346934673469347434B2
:10289800203433340D340A340034203437343A3495
:1028A800203443346F346E34743472346F346C347F
:1028B80020344C344534443420347334653467341C
:1028C8006D3465346E347434733420346F346E343C
:1028D80020344434693467346934743420343234ED
:1028E8000D340A34003431343A34203452346F34DD
:1028F8007434613474346534203453347434653436
:10290800703470346534723420344D346F34743418
:102918006F347234203443346C346F3463346B3422
:1029280077346934733465340D340A3400340D3423
:102938000A340D340A3420342A342A342A342A3406
:102948002034503449344E34423441344C344C34BD
:1029580020344F34503449344F344E3420344C34BE
:1029680049345334543420342A342A342A342A3407
:102978000D340A340034203432343A342034533499
:1029880065347434203474346834653420346D34D8
:102998006F3474346F34723420347334743465345F
:1029A8007034203469346E34743465347234763457
:1029B80061346C340D340A340034203434343A34FD
:1029C8002034523465347434753472346E3420349F
:1029D80074346F34203464346934613467346E3449
:1029E8006F34733474346934633420346D3465342B
:1029F8006E3475340D340A3400340D340A342034FE
:102A080045346E3474346534723420344434433479
:102A180041342034763461346C3475346534203470
:102A280028343034203474346F342034363433341A
:102A380029343A342034003433343A34203452348C
:102A480065347434753472346E34203474346F34AD
:102A5800203464346934613467346E346F347334C9
:102A680074346934633420346D3465346E347534A9
:102A78000D340A3400340D340A3420345334743499
:102A8800723469346E346734203465346E34743487
:102A980065347234653464342034693473342034D2
:102AA80074346F346F3420346C346F346E3467345C
:102AB80000340D340A34203454346F346F342034E5
:102AC8006D3461346E34793420346434653463345D
:102AD80069346D3461346C34203470346F34693443
:102AE8006E34743473340034313432343A3420342C
:102AF800523465347434753472346E34203474341A
:102B08006F3420346D34613469346E3420346D345C
:102B180065346E3475340D340A340034313431344C
:102B28003A34203453346534743420344C344534C6
:102B38004434203469346E34743465346E347334F8
:102B48006934743479340D340A3400340D340A3459
:102B580045346E3474346534723420346F347034D0
:102B6800743469346F346E3420346E3475346D3493
:102B78006234653472343A342034003420343134C9
:102B88003A34203454346F34673467346C346534E1
:102B98002034643469347234653463347434693489
:102BA8006F346E340D340A340034493420346134BF
:102BB8006D34203461342034503469346E346234D6
:102BC80061346C346C3420344D346134633468348B
:102BD80069346E34653400340D340A342034433497
:102BE8006C3465346134723469346E34673420343B
:102BF80044346934733470346C34613479340D344A
:102C08000A34003432342E34203453346534743466
:102C1800203461347334203444346F3477346E3460
:102C2800773461347234643473340D340A340034C4
:102C38000D340A342034563461346C3475346534B8
:102C480020346F347534743420346F34663420344F
:102C5800723461346E346734653400340D340A34A8
:102C6800203445346D3465347234673465346E34D9
:102C7800633479342034533474346F3470342034EA
:102C88003D34203400340D340A3444346F346F3406
:102C9800723420344F34703465347234613474348F
:102CA80069346F346E3461346C340D340A34003452
:102CB800203431343A34203443346C34653461344C
:102CC8007234203444346934733470346C3461346D
:102CD80079340D340A34003431342E3420345334EA
:102CE800653474342034613473342034553470348A
:102CF800773461347234643473340D340A340034F4
:102D08000D340A3420342034533474346534703428
:102D1800203469346E3474346534723476346134F2
:102D28006C343A34203400340D340A3420342034DE
:102D380020342034203420344434693472346534E7
:102D48006334743469346F346E343A342034003464
:102D58000D340A3420344E346F3420345634613400
:102D68006C3475346534203445346E3474346534C9
:102D780072346534643400340D340A3420345634E3
:102D880061346C3475346534203474346F346F3482
:102D9800203473346D3461346C346C3400340D3445
:102DA8000A342034563461346C3475346534203434
:102DB80074346F346F3420346C3461347234673453
:102DC80065340034203433343A3420345334743482
:102DD80061347234743420346D346F3474346F3425
:102DE80072340D340A34003431343A3420345434D3
:102DF80065347334743420345634543431343034B4
:102E080030340D340A3400340D340A342034533449
:102E1800773469347434633468342034313420347A
:102E28003D342034003441344E345434493443342E
:102E38004C344F3443344B34573449345334453489
:102E4800003443344C344F3443344B3457344934CE
:102E5800533445340034483465346C346C346F343E
:102E680000344F344634463400344F344E34003442
:062E78000D340A340034A1
:020000040001F9
:04000E00A20FFF1F1F
:00000001FF
